:020000040000FA
:060000000A128A11EE2F26
:100EF8003F3406345B344F3466346D347D34073404
:100F08007F346F34FF30F0070318F10AFF30F10720
:100F1800700A031D932F710A031D932F942F862F98
:100F280008007E088A007F0882000A128A11952725
:100F38000A128A118000840A04087D060319003405
:100F4800FF0A0319FE0A992F203084002C30F20082
:100F58000408F3000A30F4007208840083130008C0
:100F6800F500F20A7308840075088000F30AF40B90
:100F7800B02F83160313880183120313AA01AB0150
:100F8800831203132A08203E840083130008880074
:100F98001030F0002730F1000A128A1186270A1251
:100FA8008A11013083120313AA070318AB0A003011
:100FB800AB072B08803AFF0080307F02031DE62F25
:100FC8000A302A02031CE92FEA2FC42FC02F0A1265
:100FD8008A11002883133630FD000730FE007C306C
:100FE800FF002C3084000A128A1199270A128A11EC
:080FF80083010A128A11A82FDF
:00000001FF
