:020000040000FA
:100000000A128A11FC2F00308A000408840A820731
:100010000034443465346534703461346B342034D6
:100020005334613469340034503465346E3464348C
:0A003000793461346C34613400341B
:100F0E00F00070088312031387000810881008156C
:100F1E0008110800F00070088312031387000814EC
:100F2E00881008150811080038300A128A11872710
:100F3E000A128A1106300A128A1187270A128A119A
:100F4E000C300A128A1187270A128A1101300A12EE
:100F5E008A1187270A128A110800F300F401C82F9C
:100F6E007408730784000A128A1103200A128A1168
:100F7E000A128A1191270A128A110130F2007208A0
:100F8E00F40771087402031CCD2FCE2FB72F080063
:100F9E0083160313870188010A128A119B270A12EE
:100FAE008A1180300A128A1187270A128A110A3092
:100FBE00F5007508F10001300A128A11B4270A12E1
:100FCE008A11C0300A128A1187270A128A11083034
:100FDE00F5007508F1000C300A128A11B4270A12B6
:100FEE008A11D82F0A128A11002883010A128A1137
:020FFE00CF2FF3
:02400E00BA3FB7
:00000001FF
