:020000040000FA
:060000000A128A11FC2F18
:100F4400FF30F0070318F10AFF30F107700A031DA0
:100F5400AF2F710A031DAF2FB02FA22F0800FF304F
:100F64008316031385008601870188019F01813060
:100F7400831203139F001F150C1FC12FC22FBE2FF6
:100F84000C131E0886008830F0001330F1000A129A
:100F94008A11A2270A128A119930831203139F001F
:100FA4001F150C1FD62FD72FD32F0C131E08870005
:100FB4008830F0001330F1000A128A11A2270A12B5
:100FC4008A11A130831203139F001F150C1FEB2FEE
:100FD400EC2FE82F0C131E0888008830F000133023
:100FE400F1000A128A11A2270A128A11B92F0A12D1
:0C0FF4008A11002883010A128A11B12F13
:00000001FF
